{
  "_format": "hh3-artifact-1",
  "contractName": "AIBountyJudge",
  "sourceName": "contracts/AIBountyJudge.sol",
  "abi": [
    {
      "anonymous": false,
      "inputs": [
        {
          "indexed": true,
          "internalType": "uint256",
          "name": "bountyId",
          "type": "uint256"
        },
        {
          "indexed": true,
          "internalType": "address",
          "name": "participant",
          "type": "address"
        },
        {
          "indexed": false,
          "internalType": "string",
          "name": "answer",
          "type": "string"
        }
      ],
      "name": "AnswerRevealed",
      "type": "event"
    },
    {
      "anonymous": false,
      "inputs": [
        {
          "indexed": true,
          "internalType": "uint256",
          "name": "bountyId",
          "type": "uint256"
        },
        {
          "indexed": true,
          "internalType": "address",
          "name": "owner",
          "type": "address"
        },
        {
          "indexed": false,
          "internalType": "uint256",
          "name": "reward",
          "type": "uint256"
        }
      ],
      "name": "BountyCreated",
      "type": "event"
    },
    {
      "anonymous": false,
      "inputs": [
        {
          "indexed": true,
          "internalType": "uint256",
          "name": "bountyId",
          "type": "uint256"
        },
        {
          "indexed": true,
          "internalType": "address",
          "name": "participant",
          "type": "address"
        },
        {
          "indexed": false,
          "internalType": "bytes32",
          "name": "commitment",
          "type": "bytes32"
        }
      ],
      "name": "CommitmentSubmitted",
      "type": "event"
    },
    {
      "anonymous": false,
      "inputs": [
        {
          "indexed": true,
          "internalType": "uint256",
          "name": "bountyId",
          "type": "uint256"
        },
        {
          "indexed": false,
          "internalType": "bytes",
          "name": "llmInput",
          "type": "bytes"
        }
      ],
      "name": "JudgingRequested",
      "type": "event"
    },
    {
      "anonymous": false,
      "inputs": [
        {
          "indexed": true,
          "internalType": "uint256",
          "name": "bountyId",
          "type": "uint256"
        },
        {
          "indexed": true,
          "internalType": "address",
          "name": "winner",
          "type": "address"
        },
        {
          "indexed": false,
          "internalType": "uint256",
          "name": "reward",
          "type": "uint256"
        }
      ],
      "name": "WinnerFinalized",
      "type": "event"
    },
    {
      "inputs": [
        {
          "internalType": "uint256",
          "name": "",
          "type": "uint256"
        }
      ],
      "name": "bounties",
      "outputs": [
        {
          "internalType": "address",
          "name": "owner",
          "type": "address"
        },
        {
          "internalType": "uint256",
          "name": "reward",
          "type": "uint256"
        },
        {
          "internalType": "uint256",
          "name": "submissionDeadline",
          "type": "uint256"
        },
        {
          "internalType": "uint256",
          "name": "revealDeadline",
          "type": "uint256"
        },
        {
          "internalType": "bool",
          "name": "judged",
          "type": "bool"
        },
        {
          "internalType": "bool",
          "name": "finalized",
          "type": "bool"
        },
        {
          "internalType": "uint256",
          "name": "winnerIndex",
          "type": "uint256"
        },
        {
          "internalType": "address",
          "name": "winner",
          "type": "address"
        },
        {
          "internalType": "uint256",
          "name": "totalRevealed",
          "type": "uint256"
        }
      ],
      "stateMutability": "view",
      "type": "function"
    },
    {
      "inputs": [
        {
          "internalType": "uint256",
          "name": "_submissionDuration",
          "type": "uint256"
        },
        {
          "internalType": "uint256",
          "name": "_revealDuration",
          "type": "uint256"
        }
      ],
      "name": "createBounty",
      "outputs": [],
      "stateMutability": "payable",
      "type": "function"
    },
    {
      "inputs": [
        {
          "internalType": "uint256",
          "name": "",
          "type": "uint256"
        },
        {
          "internalType": "uint256",
          "name": "",
          "type": "uint256"
        }
      ],
      "name": "eligibleParticipants",
      "outputs": [
        {
          "internalType": "address",
          "name": "",
          "type": "address"
        }
      ],
      "stateMutability": "view",
      "type": "function"
    },
    {
      "inputs": [
        {
          "internalType": "uint256",
          "name": "_bountyId",
          "type": "uint256"
        },
        {
          "internalType": "uint256",
          "name": "_winnerIndex",
          "type": "uint256"
        }
      ],
      "name": "finalizeWinner",
      "outputs": [],
      "stateMutability": "nonpayable",
      "type": "function"
    },
    {
      "inputs": [
        {
          "internalType": "uint256",
          "name": "_bountyId",
          "type": "uint256"
        }
      ],
      "name": "getRevealedSubmissions",
      "outputs": [
        {
          "internalType": "address[]",
          "name": "users",
          "type": "address[]"
        },
        {
          "internalType": "string[]",
          "name": "answers",
          "type": "string[]"
        }
      ],
      "stateMutability": "view",
      "type": "function"
    },
    {
      "inputs": [
        {
          "internalType": "uint256",
          "name": "_bountyId",
          "type": "uint256"
        },
        {
          "internalType": "bytes",
          "name": "_llmInput",
          "type": "bytes"
        }
      ],
      "name": "judgeAll",
      "outputs": [],
      "stateMutability": "nonpayable",
      "type": "function"
    },
    {
      "inputs": [],
      "name": "nextBountyId",
      "outputs": [
        {
          "internalType": "uint256",
          "name": "",
          "type": "uint256"
        }
      ],
      "stateMutability": "view",
      "type": "function"
    },
    {
      "inputs": [
        {
          "internalType": "uint256",
          "name": "_bountyId",
          "type": "uint256"
        },
        {
          "internalType": "string",
          "name": "_answer",
          "type": "string"
        },
        {
          "internalType": "bytes32",
          "name": "_salt",
          "type": "bytes32"
        }
      ],
      "name": "revealAnswer",
      "outputs": [],
      "stateMutability": "nonpayable",
      "type": "function"
    },
    {
      "inputs": [
        {
          "internalType": "uint256",
          "name": "",
          "type": "uint256"
        },
        {
          "internalType": "address",
          "name": "",
          "type": "address"
        }
      ],
      "name": "submissions",
      "outputs": [
        {
          "internalType": "bytes32",
          "name": "commitment",
          "type": "bytes32"
        },
        {
          "internalType": "string",
          "name": "answer",
          "type": "string"
        },
        {
          "internalType": "bool",
          "name": "isRevealed",
          "type": "bool"
        },
        {
          "internalType": "bool",
          "name": "exists",
          "type": "bool"
        }
      ],
      "stateMutability": "view",
      "type": "function"
    },
    {
      "inputs": [
        {
          "internalType": "uint256",
          "name": "_bountyId",
          "type": "uint256"
        },
        {
          "internalType": "bytes32",
          "name": "_commitment",
          "type": "bytes32"
        }
      ],
      "name": "submitCommitment",
      "outputs": [],
      "stateMutability": "nonpayable",
      "type": "function"
    }
  ],
  "bytecode": "0x608060405260015f55348015610013575f80fd5b5061151d806100215f395ff3fe60806040526004361061008f575f3560e01c8063d5198a7111610057578063d5198a7114610163578063d8964ee914610182578063dc2f8744146101a1578063e6a3d9dc1461026a578063fd14fad414610289575f80fd5b806307370aa614610093578063086d832f146100c95780630e4dbf5c146101005780635a7722f11461012f5780637925d42014610150575b5f80fd5b34801561009e575f80fd5b506100b26100ad366004610faa565b6102ab565b6040516100c0929190611004565b60405180910390f35b3480156100d4575f80fd5b506100e86100e33660046110a3565b610493565b6040516001600160a01b0390911681526020016100c0565b34801561010b575f80fd5b5061011f61011a3660046110c3565b6104c7565b6040516100c094939291906110fc565b34801561013a575f80fd5b5061014e6101493660046110a3565b610586565b005b61014e61015e3660046110a3565b6107c2565b34801561016e575f80fd5b5061014e61017d366004611171565b610963565b34801561018d575f80fd5b5061014e61019c3660046111c0565b610be4565b3480156101ac575f80fd5b506102156101bb366004610faa565b600160208190525f9182526040909120805491810154600282015460038301546004840154600585015460068601546007909601546001600160a01b039788169795969495939460ff808516956101009095041693169089565b604080516001600160a01b039a8b168152602081019990995288019690965260608701949094529115156080860152151560a085015260c084015290921660e0820152610100810191909152610120016100c0565b348015610275575f80fd5b5061014e6102843660046110a3565b610d84565b348015610294575f80fd5b5061029d5f5481565b6040519081526020016100c0565b5f8181526003602052604090205460609081908067ffffffffffffffff8111156102d7576102d7611208565b604051908082528060200260200182016040528015610300578160200160208202803683370190505b5092508067ffffffffffffffff81111561031c5761031c611208565b60405190808252806020026020018201604052801561034f57816020015b606081526020019060019003908161033a5790505b5091505f5b8181101561048c575f85815260036020526040812080548390811061037b5761037b61121c565b905f5260205f20015f9054906101000a90046001600160a01b03169050808583815181106103ab576103ab61121c565b6001600160a01b039283166020918202929092018101919091525f8881526002825260408082209385168252929091522060010180546103ea90611230565b80601f016020809104026020016040519081016040528092919081815260200182805461041690611230565b80156104615780601f1061043857610100808354040283529160200191610461565b820191905f5260205f20905b81548152906001019060200180831161044457829003601f168201915b50505050508483815181106104785761047861121c565b602090810291909101015250600101610354565b5050915091565b6003602052815f5260405f2081815481106104ac575f80fd5b5f918252602090912001546001600160a01b03169150829050565b600260209081525f9283526040808420909152908252902080546001820180549192916104f390611230565b80601f016020809104026020016040519081016040528092919081815260200182805461051f90611230565b801561056a5780601f106105415761010080835404028352916020019161056a565b820191905f5260205f20905b81548152906001019060200180831161054d57829003601f168201915b5050506002909301549192505060ff8082169161010090041684565b5f8281526001602052604090205482906001600160a01b031633146105e95760405162461bcd60e51b81526020600482015260146024820152732737ba103a3432903137bab73a3c9037bbb732b960611b60448201526064015b60405180910390fd5b5f838152600160205260409020600481015460ff1661063b5760405162461bcd60e51b815260206004820152600e60248201526d139bdd081a9d5919d959081e595d60921b60448201526064016105e0565b6004810154610100900460ff16156106895760405162461bcd60e51b8152602060048201526011602482015270105b1c9958591e48199a5b985b1a5e9959607a1b60448201526064016105e0565b5f8481526003602052604090205483106106dc5760405162461bcd60e51b8152602060048201526014602482015273092dcecc2d8d2c840eed2dcdccae440d2dcc8caf60631b60448201526064016105e0565b5f8481526003602052604081208054859081106106fb576106fb61121c565b5f918252602082200154600584018690556006840180546001600160a01b0319166001600160a01b03909216918217905560048401805461ff0019166101001790556001840180549083905560405191935091839183156108fc0291849190818181858888f19350505050158015610775573d5f803e3d5ffd5b50816001600160a01b0316867f191d1c82d12c73be6838a4321a9195b9cc2ea72f77f6265ebbc8af513124a44a836040516107b291815260200190565b60405180910390a3505050505050565b5f34116108115760405162461bcd60e51b815260206004820152601d60248201527f526577617264206d7573742062652067726561746572207468616e203000000060448201526064016105e0565b5f8054818061081f8361127c565b90915550604080516101208101825233815234602082015291925081016108468542611294565b8152602001836108568642611294565b6108609190611294565b81525f602080830182905260408084018390526060808501849052608080860185905260a0958601859052878552600180855294839020875181546001600160a01b03199081166001600160a01b039283161783558987015197830197909755888501516002830155928801516003820155908701516004820180549789015161ffff1990981691151561ff00191691909117610100971515880217905560c0870151600582015560e0870151600682018054909616921691909117909355929093015160079091015551348152339183917f1b5e39b039983ddb5862b33842ac157179867c6df1a61f69c50465fd14017f6e91015b60405180910390a3505050565b5f84815260016020526040902060028101544210156109c45760405162461bcd60e51b815260206004820181905260248201527f5375626d697373696f6e207068617365206973207374696c6c2061637469766560448201526064016105e0565b80600301544210610a105760405162461bcd60e51b815260206004820152601660248201527514995d99585b081c1a185cd9481a185cc8195b99195960521b60448201526064016105e0565b5f85815260026020818152604080842033855290915290912090810154610100900460ff16610a775760405162461bcd60e51b8152602060048201526013602482015272139bc818dbdb5b5a5d1b595b9d08199bdd5b99606a1b60448201526064016105e0565b600281015460ff1615610abf5760405162461bcd60e51b815260206004820152601060248201526f105b1c9958591e481c995d99585b195960821b60448201526064016105e0565b5f858585338a604051602001610ad99594939291906112ad565b60405160208183030381529060405280519060200120905080825f015414610b335760405162461bcd60e51b815260206004820152600d60248201526c090c2e6d040dad2e6dac2e8c6d609b1b60448201526064016105e0565b60018201610b4286888361132a565b5060028201805460ff191660019081179091555f8881526003602090815260408220805493840181558252812090910180546001600160a01b0319163317905560078401805491610b928361127c565b9190505550336001600160a01b0316877f1c5a0cd3549bc3f4735b905925a464a858813bdaa1bca05e4cf8131f7b878cfa8888604051610bd392919061140c565b60405180910390a350505050505050565b5f8381526001602052604090205483906001600160a01b03163314610c425760405162461bcd60e51b81526020600482015260146024820152732737ba103a3432903137bab73a3c9037bbb732b960611b60448201526064016105e0565b5f8481526001602052604090206003810154421015610ca35760405162461bcd60e51b815260206004820152601c60248201527f52657665616c207068617365206973207374696c6c206163746976650000000060448201526064016105e0565b600481015460ff1615610ce95760405162461bcd60e51b815260206004820152600e60248201526d105b1c9958591e481a9d5919d95960921b60448201526064016105e0565b5f816007015411610d325760405162461bcd60e51b81526020600482015260136024820152724e6f20616e737765727320746f206a7564676560681b60448201526064016105e0565b60048101805460ff1916600117905560405185907fac3651a34b6f307a371ae841b7fa3e8be1e24dc65bed69b19624657c3fcba8fa90610d75908790879061140c565b60405180910390a25050505050565b5f82815260016020526040902080546001600160a01b0316610de05760405162461bcd60e51b8152602060048201526015602482015274109bdd5b9d1e48191bd95cc81b9bdd08195e1a5cdd605a1b60448201526064016105e0565b80600201544210610e335760405162461bcd60e51b815260206004820152601a60248201527f5375626d697373696f6e2070686173652068617320656e64656400000000000060448201526064016105e0565b5f8381526002602081815260408084203385529091529091200154610100900460ff1615610ea35760405162461bcd60e51b815260206004820152601e60248201527f416c7265616479207375626d6974746564206120636f6d6d69746d656e74000060448201526064016105e0565b81610ee55760405162461bcd60e51b8152602060048201526012602482015271125b9d985b1a590818dbdb5b5a5d1b595b9d60721b60448201526064016105e0565b604080516080810182528381528151602081810184525f80835281840192835283850181905260016060850181905288825260028352858220338352909252939093208251815590519192909190820190610f409082611427565b50604082810151600292909201805460609094015161ffff1990941692151561ff001916929092176101009315159390930292909217905551828152339084907f6459ffc8e2e6aea1e7a6161f54ca96e0b0c83db7191f26ccf5c33e14f7f178c590602001610956565b5f60208284031215610fba575f80fd5b5035919050565b5f81518084525f5b81811015610fe557602081850181015186830182015201610fc9565b505f602082860101526020601f19601f83011685010191505092915050565b604080825283519082018190525f906020906060840190828701845b828110156110455781516001600160a01b031684529284019290840190600101611020565b50505083810382850152845180825282820190600581901b830184018785015f5b8381101561109457601f19868403018552611082838351610fc1565b94870194925090860190600101611066565b50909998505050505050505050565b5f80604083850312156110b4575f80fd5b50508035926020909101359150565b5f80604083850312156110d4575f80fd5b8235915060208301356001600160a01b03811681146110f1575f80fd5b809150509250929050565b848152608060208201525f6111146080830186610fc1565b93151560408301525090151560609091015292915050565b5f8083601f84011261113c575f80fd5b50813567ffffffffffffffff811115611153575f80fd5b60208301915083602082850101111561116a575f80fd5b9250929050565b5f805f8060608587031215611184575f80fd5b84359350602085013567ffffffffffffffff8111156111a1575f80fd5b6111ad8782880161112c565b9598909750949560400135949350505050565b5f805f604084860312156111d2575f80fd5b83359250602084013567ffffffffffffffff8111156111ef575f80fd5b6111fb8682870161112c565b9497909650939450505050565b634e487b7160e01b5f52604160045260245ffd5b634e487b7160e01b5f52603260045260245ffd5b600181811c9082168061124457607f821691505b60208210810361126257634e487b7160e01b5f52602260045260245ffd5b50919050565b634e487b7160e01b5f52601160045260245ffd5b5f6001820161128d5761128d611268565b5060010190565b808201808211156112a7576112a7611268565b92915050565b8486823790930191825260601b6bffffffffffffffffffffffff191660208201526034810191909152605401919050565b601f82111561132557805f5260205f20601f840160051c810160208510156113035750805b601f840160051c820191505b81811015611322575f815560010161130f565b50505b505050565b67ffffffffffffffff83111561134257611342611208565b611356836113508354611230565b836112de565b5f601f841160018114611387575f85156113705750838201355b5f19600387901b1c1916600186901b178355611322565b5f83815260208120601f198716915b828110156113b65786850135825560209485019460019092019101611396565b50868210156113d2575f1960f88860031b161c19848701351681555b505060018560011b0183555050505050565b81835281816020850137505f828201602090810191909152601f909101601f19169091010190565b602081525f61141f6020830184866113e4565b949350505050565b815167ffffffffffffffff81111561144157611441611208565b6114558161144f8454611230565b846112de565b602080601f831160018114611488575f84156114715750858301515b5f19600386901b1c1916600185901b1785556114df565b5f85815260208120601f198616915b828110156114b657888601518255948401946001909101908401611497565b50858210156114d357878501515f19600388901b60f8161c191681555b505060018460011b0185555b50505050505056fea26469706673582212202269baad51f1c549ebf7a8ff77407aa2b9a1bcd3bf04b56bf8819fdc6fb6724464736f6c63430008180033",
  "linkReferences": {},
  "deployedLinkReferences": {},
  "immutableReferences": {},
  "inputSourceName": "project/contracts/AIBountyJudge.sol",
  "buildInfoId": "solc-0_8_24-7957b81bedc364fd2a108bfa749a39bcbadee10c"
}